{
    "contractName": "Voting",
    "abi": [
        {
            "inputs": [
                {
                    "internalType": "uint256",
                    "name": "",
                    "type": "uint256"
                }
            ],
            "name": "candidates",
            "outputs": [
                {
                    "internalType": "uint256",
                    "name": "candidateId",
                    "type": "uint256"
                },
                {
                    "internalType": "string",
                    "name": "name",
                    "type": "string"
                },
                {
                    "internalType": "string",
                    "name": "position",
                    "type": "string"
                }
            ],
            "stateMutability": "view",
            "type": "function"
        },
        {
            "inputs": [],
            "name": "getCandidates",
            "outputs": [
                {
                    "internalType": "uint256[]",
                    "name": "",
                    "type": "uint256[]"
                },
                {
                    "internalType": "string[]",
                    "name": "",
                    "type": "string[]"
                },
                {
                    "internalType": "string[]",
                    "name": "",
                    "type": "string[]"
                }
            ],
            "stateMutability": "view",
            "type": "function"
        },
        {
            "inputs": [],
            "name": "getRole",
            "outputs": [
                {
                    "internalType": "string",
                    "name": "",
                    "type": "string"
                }
            ],
            "stateMutability": "view",
            "type": "function"
        },
        {
            "inputs": [],
            "name": "isActive",
            "outputs": [
                {
                    "internalType": "bool",
                    "name": "",
                    "type": "bool"
                }
            ],
            "stateMutability": "view",
            "type": "function"
        },
        {
            "inputs": [],
            "name": "isEnded",
            "outputs": [
                {
                    "internalType": "bool",
                    "name": "",
                    "type": "bool"
                }
            ],
            "stateMutability": "view",
            "type": "function"
        },
        {
            "inputs": [],
            "name": "publishResult",
            "outputs": [
                {
                    "internalType": "string[]",
                    "name": "",
                    "type": "string[]"
                },
                {
                    "internalType": "string[]",
                    "name": "",
                    "type": "string[]"
                },
                {
                    "internalType": "uint256[]",
                    "name": "",
                    "type": "uint256[]"
                }
            ],
            "stateMutability": "view",
            "type": "function"
        },
        {
            "inputs": [
                {
                    "internalType": "string[]",
                    "name": "names",
                    "type": "string[]"
                },
                {
                    "internalType": "string[]",
                    "name": "position",
                    "type": "string[]"
                }
            ],
            "name": "setElectionCandidates",
            "outputs": [],
            "stateMutability": "nonpayable",
            "type": "function"
        },
        {
            "inputs": [
                {
                    "internalType": "uint256",
                    "name": "_candidateId",
                    "type": "uint256"
                }
            ],
            "name": "vote",
            "outputs": [],
            "stateMutability": "nonpayable",
            "type": "function"
        },
        {
            "inputs": [
                {
                    "internalType": "address",
                    "name": "",
                    "type": "address"
                }
            ],
            "name": "voters",
            "outputs": [
                {
                    "internalType": "bool",
                    "name": "",
                    "type": "bool"
                }
            ],
            "stateMutability": "view",
            "type": "function"
        }
    ],
    "bytecode": "608060405260016003556004805461ffff1916905534801561002057600080fd5b50611184806100306000396000f3fe608060405234801561001057600080fd5b50600436106100935760003560e01c80633477ee2e116100665780633477ee2e146100fd578063a3ec138d1461011f578063a4fd6f5614610142578063c3524be614610154578063fde081741461016b57600080fd5b80630121b93f1461009857806306a49fce146100ad5780631d419015146100cd57806322f3e2d4146100e0575b600080fd5b6100ab6100a6366004610d52565b610180565b005b6100b56102a7565b6040516100c493929190610e4d565b60405180910390f35b6100ab6100db366004610fcc565b61056c565b6004546100ed9060ff1681565b60405190151581526020016100c4565b61011061010b366004610d52565b610620565b6040516100c493929190611030565b6100ed61012d36600461105b565b60056020526000908152604090205460ff1681565b6004546100ed90610100900460ff1681565b61015c610753565b6040516100c49392919061108b565b610173610b35565b6040516100c491906110c4565b600454610100900460ff16156101d35760405162461bcd60e51b8152602060048201526013602482015272456c656374696f6e2068617320656e6465642160681b60448201526064015b60405180910390fd5b60045460ff166102255760405162461bcd60e51b815260206004820152601760248201527f456c656374696f6e20686173206e6f7420626567756e2100000000000000000060448201526064016101ca565b3360009081526005602052604090205460ff161561024257600080fd5b60008111801561025457506003548111155b61025d57600080fd5b336000908152600560209081526040808320805460ff191660019081179091558484529091528120805491610291836110d7565b9091555060009182526001602052604090912055565b6060806060600060035467ffffffffffffffff8111156102c9576102c9610e90565b6040519080825280602002602001820160405280156102fc57816020015b60608152602001906001900390816102e75790505b509050600060035467ffffffffffffffff81111561031c5761031c610e90565b60405190808252806020026020018201604052801561034f57816020015b606081526020019060019003908161033a5790505b509050600060035467ffffffffffffffff81111561036f5761036f610e90565b604051908082528060200260200182016040528015610398578160200160208202803683370190505b50905060005b60035481101561056157600081815260026020526040902060010180546103c4906110fe565b80601f01602080910402602001604051908101604052809291908181526020018280546103f0906110fe565b801561043d5780601f106104125761010080835404028352916020019161043d565b820191906000526020600020905b81548152906001019060200180831161042057829003601f168201915b505050505084828151811061045457610454611138565b6020026020010181905250600260008281526020019081526020016000206002018054610480906110fe565b80601f01602080910402602001604051908101604052809291908181526020018280546104ac906110fe565b80156104f95780601f106104ce576101008083540402835291602001916104f9565b820191906000526020600020905b8154815290600101906020018083116104dc57829003601f168201915b505050505083828151811061051057610510611138565b6020026020010181905250600260008281526020019081526020016000206000015482828151811061054457610544611138565b602090810291909101015280610559816110d7565b91505061039e565b509591945092509050565b60005b825181101561061b57600354600081815260026020526040902090815583518490839081106105a0576105a0611138565b60200260200101518160010190805190602001906105bf929190610cb9565b508282815181106105d2576105d2611138565b60200260200101518160020190805190602001906105f1929190610cb9565b5060038054906000610602836110d7565b9190505550508080610613906110d7565b91505061056f565b505050565b60026020526000908152604090208054600182018054919291610642906110fe565b80601f016020809104026020016040519081016040528092919081815260200182805461066e906110fe565b80156106bb5780601f10610690576101008083540402835291602001916106bb565b820191906000526020600020905b81548152906001019060200180831161069e57829003601f168201915b5050505050908060020180546106d0906110fe565b80601f01602080910402602001604051908101604052809291908181526020018280546106fc906110fe565b80156107495780601f1061071e57610100808354040283529160200191610749565b820191906000526020600020905b81548152906001019060200180831161072c57829003601f168201915b5050505050905083565b33600090815260208190526040902054606090819081907f405e9a4fef21159c9989b9550c4cf30e6ce13a51d76b36b3ca3a5e0999cd6dc314806107c55750336000908152602081905260409020547f389259811d6a82749811fce7fb34ba2dbce22b33027ca658f491238965c712e0145b61081f5760405162461bcd60e51b815260206004820152602560248201527f596f7520646f6e27742068617665207468652072657175697265642070726976604482015264696c65676560d81b60648201526084016101ca565b600454610100900460ff166108765760405162461bcd60e51b815260206004820152601960248201527f456c656374696f6e206973207374696c6c206f6e676f696e670000000000000060448201526064016101ca565b600060035467ffffffffffffffff81111561089357610893610e90565b6040519080825280602002602001820160405280156108c657816020015b60608152602001906001900390816108b15790505b509050600060035467ffffffffffffffff8111156108e6576108e6610e90565b60405190808252806020026020018201604052801561091957816020015b60608152602001906001900390816109045790505b509050600060035467ffffffffffffffff81111561093957610939610e90565b604051908082528060200260200182016040528015610962578160200160208202803683370190505b50905060005b600354811015610b28576000818152600260205260409020600101805461098e906110fe565b80601f01602080910402602001604051908101604052809291908181526020018280546109ba906110fe565b8015610a075780601f106109dc57610100808354040283529160200191610a07565b820191906000526020600020905b8154815290600101906020018083116109ea57829003601f168201915b5050505050848281518110610a1e57610a1e611138565b6020026020010181905250600260008281526020019081526020016000206002018054610a4a906110fe565b80601f0160208091040260200160405190810160405280929190818152602001828054610a76906110fe565b8015610ac35780601f10610a9857610100808354040283529160200191610ac3565b820191906000526020600020905b815481529060010190602001808311610aa657829003601f168201915b5050505050838281518110610ada57610ada611138565b60200260200101819052506001600082815260200190815260200160002054828281518110610b0b57610b0b611138565b602090810291909101015280610b20816110d7565b915050610968565b5091945092509050909192565b336000908152602081905260409020546060907fbfa165b010deea63667646aaf3b30cf1931ec5ae2894c94c35c5a1f66632923d01610b9057506040805180820190915260078152662a32b0b1b432b960c91b602082015290565b336000908152602081905260409020547fc76da67ee2957d8b67ee031804cb45d2431dd4ccfd8359a70b6edc769a38ed2001610be9575060408051808201909152600881526731b430b4b936b0b760c11b602082015290565b336000908152602081905260409020547f3e6a9a7776162efa8cc3211be48d187918dd0db0e59d24f52b2659346e43f6d601610c4157506040805180820190915260078152661cdd1d59195b9d60ca1b602082015290565b336000908152602081905260409020547f3e6a9a7776162efa8cc3211be48d187918dd0db0e59d24f52b2659346e43f6d601610c97575060408051808201909152600581526430b236b4b760d91b602082015290565b506040805180820190915260078152664e6f20726f6c6560c81b602082015290565b828054610cc5906110fe565b90600052602060002090601f016020900481019282610ce75760008555610d2d565b82601f10610d0057805160ff1916838001178555610d2d565b82800160010185558215610d2d579182015b82811115610d2d578251825591602001919060010190610d12565b50610d39929150610d3d565b5090565b5b80821115610d395760008155600101610d3e565b600060208284031215610d6457600080fd5b5035919050565b600081518084526020808501945080840160005b83811015610d9b57815187529582019590820190600101610d7f565b509495945050505050565b60008151808452602060005b82811015610dcd578481018201518682018301528101610db2565b82811115610dde5760008284880101525b5080601f19601f8401168601019250505092915050565b600082825180855260208086019550808260051b84010181860160005b84811015610e4057601f19868403018952610e2e838351610da6565b98840198925090830190600101610e12565b5090979650505050505050565b606081526000610e606060830186610d6b565b8281036020840152610e728186610df5565b90508281036040840152610e868185610df5565b9695505050505050565b634e487b7160e01b600052604160045260246000fd5b604051601f8201601f1916810167ffffffffffffffff81118282101715610ecf57610ecf610e90565b604052919050565b6000601f8381840112610ee957600080fd5b8235602067ffffffffffffffff80831115610f0657610f06610e90565b8260051b610f15838201610ea6565b9384528681018301938381019089861115610f2f57600080fd5b84890192505b85831015610fbf57823584811115610f4d5760008081fd5b8901603f81018b13610f5f5760008081fd5b85810135604086821115610f7557610f75610e90565b610f86828b01601f19168901610ea6565b8281528d82848601011115610f9b5760008081fd5b828285018a8301376000928101890192909252508352509184019190840190610f35565b9998505050505050505050565b60008060408385031215610fdf57600080fd5b823567ffffffffffffffff80821115610ff757600080fd5b61100386838701610ed7565b9350602085013591508082111561101957600080fd5b5061102685828601610ed7565b9150509250929050565b8381526060602082015260006110496060830185610da6565b8281036040840152610e868185610da6565b60006020828403121561106d57600080fd5b81356001600160a01b038116811461108457600080fd5b9392505050565b60608152600061109e6060830186610df5565b82810360208401526110b08186610df5565b90508281036040840152610e868185610d6b565b6020815260006110846020830184610da6565b6000600182016110f757634e487b7160e01b600052601160045260246000fd5b5060010190565b600181811c9082168061111257607f821691505b60208210810361113257634e487b7160e01b600052602260045260246000fd5b50919050565b634e487b7160e01b600052603260045260246000fdfea26469706673582212200f3a06a1507f740f67ebee3813971e3227aee92d81214ea64858e8c1d084809364736f6c634300080d0033",
    "sourcePath": "/home/jm/web3/blockgames/Voting/packages/hardhat/contracts/Voting.sol",
    "compiler": {
        "name": "solc",
        "version": "0.8.13+commit.abaa5c0e"
    },
    "functionHashes": {
        "candidates(uint256)": "3477ee2e",
        "getCandidates()": "06a49fce",
        "getRole()": "fde08174",
        "isActive()": "22f3e2d4",
        "isEnded()": "a4fd6f56",
        "publishResult()": "c3524be6",
        "setElectionCandidates(string[],string[])": "1d419015",
        "vote(uint256)": "0121b93f",
        "voters(address)": "a3ec138d"
    },
    "gasEstimates": {
        "creation": {
            "codeDepositCost": "896800",
            "executionCost": "47259",
            "totalCost": "944059"
        },
        "external": {
            "candidates(uint256)": "infinite",
            "getCandidates()": "infinite",
            "getRole()": "infinite",
            "isActive()": "2377",
            "isEnded()": "2365",
            "publishResult()": "infinite",
            "setElectionCandidates(string[],string[])": "infinite",
            "vote(uint256)": "79656",
            "voters(address)": "2518"
        }
    }
}